:020000040800F2
:1000000000000120991F00080D1800080F180008B3
:100010001118000813180008151800080000000047
:100020000000000000000000000000001718000899
:1000300019180008000000001B1800081D1800080F
:10004000E91F0008E91F0008E91F0008E91F000870
:10005000E91F0008E91F0008E91F0008E91F000860
:10006000E91F0008E91F0008E91F0008E91F000850
:10007000E91F0008E91F0008E91F0008E91F000840
:10008000E91F0008E91F000825180008000000000B
:10009000000000000000000000000000E91F000850
:1000A000E91F0008E91F000835180008E91F0008CB
:1000B000E91F00084D180008E91F0008E91F0008A3
:1000C000E91F0008E91F0008E91F0008E91F0008F0
:1000D000E91F00085D180008E91F00080000000083
:1000E000E91F0008E91F0008E91F000800000000E0
:1000F000000000000000000000000000E91F0008F0
:1001000000000000E91F0008E91F0008E91F0008BF
:1001100000000000000000000000000000000000DF
:100120006D1800087D1800088D180008E91F0008E8
:10013000E91F0008000000000000000000000000AF
:10014000000000000000000000000000E91F00089F
:10015000E91F00089D180008AD180008E91F0008F5
:10016000E91F0008E91F000800000000000000006F
:10017000000000000000000000000000000000007F
:1001800000000000E91F000800000000000000005F
:04019000E91F00085B
:1001C00010B5054C237833B9044B13B10448AFF391
:1001D00000800123237010BDB8090020000000003A
:1001E00014B7000808B5034B1BB103490348AFF32C
:1001F000008008BD00000000BC09002014B7000802
:1002000081F0004102E000BF83F0004330B54FEAC7
:1002100041044FEA430594EA050F08BF90EA020F34
:100220001FBF54EA000C55EA020C7FEA645C7FEAC7
:10023000655C00F0E2804FEA5454D4EB5555B8BFEA
:100240006D420CDD2C4480EA020281EA030382EA5B
:10025000000083EA010180EA020281EA0303362DED
:1002600088BF30BD11F0004F4FEA01314FF4801CC0
:100270004CEA113102D0404261EB410113F0004FD2
:100280004FEA03334CEA133302D0524263EB430389
:1002900094EA050F00F0A780A4F10104D5F1200E27
:1002A0000DDB02FA0EFC22FA05F2801841F1000182
:1002B00003FA0EF2801843FA05F359410EE0A5F156
:1002C00020050EF1200E012A03FA0EFC28BF4CF087
:1002D000020C43FA05F3C01851EBE37101F000453D
:1002E00007D54FF0000EDCF1000C7EEB00006EEB4A
:1002F0000101B1F5801F1BD3B1F5001F0CD34908D4
:100300005FEA30004FEA3C0C04F101044FEA44522A
:1003100012F5800F80F09A80BCF1004F08BF5FEAB1
:10032000500C50F1000041EB045141EA050130BD91
:100330005FEA4C0C404141EB0101013C28BFB1F5A3
:10034000801FE9D291F0000F04BF01460020B1FAEE
:1003500081F308BF2033A3F10B03B3F120020CDAC1
:100360000C3208DD02F1140CC2F10C0201FA0CF09F
:1003700021FA02F10CE002F11402D8BFC2F1200C04
:1003800001FA02F120FA0CFCDCBF41EA0C019040BA
:10039000E41AA2BF01EB0451294330BD6FEA040403
:1003A0001F3C1CDA0C340EDC04F11404C4F12002EE
:1003B00020FA04F001FA02F340EA030021FA04F300
:1003C00045EA030130BDC4F10C04C4F1200220FA57
:1003D00002F001FA04F340EA0300294630BD21FA95
:1003E00004F0294630BD94F0000F83F4801306BF5B
:1003F00081F480110134013D4EE77FEA645C18BF4F
:100400007FEA655C29D094EA050F08BF90EA020FE5
:1004100005D054EA000C04BF1946104630BD91EADD
:10042000030F1EBF0021002030BD5FEA545C05D1E0
:100430004000494128BF41F0004130BD14F580041F
:100440003CBF01F5801130BD01F0004545F0FE4193
:1004500041F470014FF0000030BD7FEA645C1ABFC8
:10046000194610467FEA655C1CBF0B46024650EAFF
:10047000013406BF52EA033591EA030F41F400212B
:1004800030BD00BF90F0000F04BF0021704730B5B1
:100490004FF4806404F132044FF000054FF0000186
:1004A00050E700BF90F0000F04BF0021704730B547
:1004B0004FF4806404F1320410F0004548BF40421C
:1004C0004FF000013EE700BF42004FEAE2014FEA71
:1004D00031014FEA02701FBF12F07F4393F07F4F4C
:1004E00081F06051704732F07F4208BF704793F04F
:1004F0007F4F04BF41F40021704730B54FF4607462
:1005000001F0004521F000411CE700BF50EA010264
:1005100008BF704730B54FF000050AE050EA01020D
:1005200008BF704730B511F0004502D5404261EB7D
:1005300041014FF4806404F132045FEA915C3FF4BE
:10054000D8AE4FF003025FEADC0C18BF03325FEA5B
:10055000DC0C18BF033202EBDC02C2F1200300FA0C
:1005600003FC20FA02F001FA03FE40EA0E0021FA31
:1005700002F11444BDE600BF70B54FF0FF0C4CF41F
:10058000E06C1CEA11541DBF1CEA135594EA0C0FD1
:1005900095EA0C0F00F0DEF82C4481EA030621EA0C
:1005A0004C5123EA4C5350EA013518BF52EA033547
:1005B00041F4801143F4801338D0A0FB02CE4FF0F9
:1005C0000005E1FB02E506F00042E0FB03E54FF029
:1005D0000006E1FB03569CF0000F18BF4EF0010E21
:1005E000A4F1FF04B6F5007F64F5407404D25FEA1D
:1005F0004E0E6D4146EB060642EAC62141EA5551D0
:100600004FEAC52040EA5E504FEACE2EB4F1FD0C11
:1006100088BFBCF5E06F1ED8BEF1004F08BF5FEA8F
:10062000500E50F1000041EB045170BD06F0004641
:1006300046EA010140EA020081EA0301B4EB5C04EE
:10064000C2BFD4EB0C0541EA045170BD41F48011E6
:100650004FF0000E013C00F3AB8014F1360FDEBF0B
:10066000002001F0004170BDC4F10004203C35DAE7
:100670000C341BDC04F11404C4F1200500FA05F36A
:1006800020FA04F001FA05F240EA020001F000420B
:1006900021F0004110EBD37021FA04F642EB060181
:1006A0005EEA430E08BF20EAD37070BDC4F10C04AB
:1006B000C4F1200500FA04F320FA05F001FA04F26F
:1006C00040EA020001F0004110EBD37041F100015B
:1006D0005EEA430E08BF20EAD37070BDC4F1200566
:1006E00000FA05F24EEA020E20FA04F301FA05F2CE
:1006F00043EA020321FA04F001F0004121FA04F276
:1007000020EA020000EBD3705EEA430E08BF20EA45
:10071000D37070BD94F0000F0FD101F0004640007F
:1007200041EB010111F4801F08BF013CF7D041EA01
:10073000060195F0000F18BF704703F00046520005
:1007400043EB030313F4801F08BF013DF7D043EAD6
:100750000603704794EA0C0F0CEA135518BF95EA8C
:100760000C0F0CD050EA410618BF52EA4306D1D113
:1007700081EA030101F000414FF0000070BD50EA32
:10078000410606BF1046194652EA430619D094EABC
:100790000C0F02D150EA013613D195EA0C0F05D1A6
:1007A00052EA03361CBF104619460AD181EA0301FA
:1007B00001F0004141F0FE4141F470014FF00000B2
:1007C00070BD41F0FE4141F4780170BD70B54FF04D
:1007D000FF0C4CF4E06C1CEA11541DBF1CEA1355CD
:1007E00094EA0C0F95EA0C0F00F0A7F8A4EB0504AF
:1007F00081EA030E52EA03354FEA013100F08880A6
:100800004FEA03334FF0805545EA131343EA12636E
:100810004FEA022245EA111545EA10654FEA002623
:100820000EF000419D4208BF964244F1FD0404F5DC
:10083000407402D25B084FEA3202B61A65EB030538
:100840005B084FEA32024FF480104FF4002CB6EBF5
:10085000020E75EB030E22BFB61A754640EA0C0075
:100860005B084FEA3202B6EB020E75EB030E22BFB5
:10087000B61A754640EA5C005B084FEA3202B6EBF6
:10088000020E75EB030E22BFB61A754640EA9C00B5
:100890005B084FEA3202B6EB020E75EB030E22BF85
:1008A000B61A754640EADC0055EA060E18D04FEA43
:1008B000051545EA16754FEA06164FEAC30343EAE3
:1008C00052734FEAC2025FEA1C1CC0D111F4801FB0
:1008D0000BD141EA00014FF000004FF0004CB6E7A9
:1008E00011F4801F04BF01430020B4F1FD0C88BF48
:1008F000BCF5E06F3FF6AFAEB5EB030C04BFB6EB53
:10090000020C5FEA500C50F1000041EB045170BD45
:100910000EF0004E4EEA113114EB5C04C2BFD4EB72
:100920000C0541EA045170BD41F480114FF0000EF6
:10093000013C90E645EA060E8DE60CEA135594EA72
:100940000C0F08BF95EA0C0F3FF43BAF94EA0C0F75
:100950000AD150EA01347FF434AF95EA0C0F7FF4EA
:1009600025AF104619462CE795EA0C0F06D152EA3E
:1009700003353FF4FDAE1046194622E750EA410622
:1009800018BF52EA43067FF4C5AE50EA41047FF433
:100990000DAF52EA43057FF4EBAE12E74FF0FF3C98
:1009A00006E000BF4FF0010C02E000BF4FF0010C69
:1009B0004DF804CD4FEA410C7FEA6C5C4FEA430CE2
:1009C00018BF7FEA6C5C1BD001B050EA410C0CBF31
:1009D00052EA430C91EA030F02BF90EA020F002093
:1009E000704710F1000F91EA030F58BF994208BFFA
:1009F00090422CBFD8176FEAE37040F001007047B7
:100A00004FEA410C7FEA6C5C02D150EA013C07D10D
:100A10004FEA430C7FEA6C5CD6D152EA033CD3D058
:100A20005DF8040B704700BF8446104662468C4652
:100A30001946634600E000BF01B5FFF7B7FF002885
:100A400048BF10F1000F01BD4DF808EDFFF7F4FFAE
:100A50000CBF012000205DF808FB00BF4DF808ED39
:100A6000FFF7EAFF34BF012000205DF808FB00BF5C
:100A70004DF808EDFFF7E0FF94BF012000205DF87E
:100A800008FB00BF4DF808EDFFF7CEFF94BF012033
:100A900000205DF808FB00BF4DF808EDFFF7C4FF2C
:100AA00034BF012000205DF808FB00BF53B94AB9EC
:100AB000002908BF00281CBF4FF0FF314FF0FF3066
:100AC00000F074B9ADF1080C6DE904CE00F006F841
:100AD000DDF804E0DDE9022304B070472DE9F047BA
:100AE000089D04468E46002B4DD18A42944669D912
:100AF000B2FA82F252B101FA02F3C2F1200120FAF5
:100B000001F10CFA02FC41EA030E94404FEA1C4842
:100B1000210CBEFBF8F61FFA8CF708FB16E341EA3E
:100B2000034306FB07F199420AD91CEB030306F1C4
:100B3000FF3080F01F81994240F21C81023E6344E5
:100B40005B1AA4B2B3FBF8F008FB103344EA034489
:100B500000FB07F7A7420AD91CEB040400F1FF339E
:100B600080F00A81A74240F207816444023840EADB
:100B70000640E41B00261DB1D4400023C5E9004314
:100B80003146BDE8F0878B4209D9002D00F0EF8097
:100B90000026C5E9000130463146BDE8F087B3FACA
:100BA00083F6002E4AD18B4202D3824200F2F980B2
:100BB000841A61EB030301209E46002DE0D0C5E9B5
:100BC000004EDDE702B9FFDEB2FA82F2002A40F001
:100BD0009280A1EB0C014FEA1C471FFA8CFE012604
:100BE000200CB1FBF7F307FB131140EA01410EFBA8
:100BF00003F0884208D91CEB010103F1FF3802D24F
:100C0000884200F2CB804346091AA4B2B1FBF7F048
:100C100007FB101144EA01440EFB00FEA64508D96B
:100C20001CEB040400F1FF3102D2A64500F2BB80A8
:100C30000846A4EB0E0440EA03409CE7C6F12007F7
:100C4000B34022FA07FC4CEA030C20FA07F401FA3D
:100C500006F31C43F9404FEA1C4900FA06F3B1FBC6
:100C6000F9F8200C1FFA8CFE09FB181140EA01412B
:100C700008FB0EF0884202FA06F20BD91CEB0101C8
:100C800008F1FF3A80F08880884240F28580A8F120
:100C900002086144091AA4B2B1FBF9F009FB101172
:100CA00044EA014100FB0EFE8E4508D91CEB010110
:100CB00000F1FF346CD28E456AD90238614440EAB3
:100CC0000840A0FB0294A1EB0E01A142C846A64633
:100CD00056D353D05DB1B3EB080261EB0E0101FABC
:100CE00007F722FA06F3F1401F43C5E90071002619
:100CF0003146BDE8F087C2F12003D8400CFA02FC6F
:100D000021FA03F3914001434FEA1C471FFA8CFE7E
:100D1000B3FBF7F007FB10360B0C43EA064300FB6E
:100D20000EF69E4204FA02F408D91CEB030300F10C
:100D3000FF382FD29E422DD9023863449B1B89B2C3
:100D4000B3FBF7F607FB163341EA034106FB0EF34C
:100D50008B4208D91CEB010106F1FF3816D28B42F9
:100D600014D9023E6144C91A46EA004638E72E46C5
:100D7000284605E70646E3E61846F8E64B45A9D2BD
:100D8000B9EB020864EB0C0E0138A3E74646EAE72C
:100D9000204694E74046D1E7D0467BE7023B6144DA
:100DA00032E7304609E76444023842E7704700BF43
:100DB00001F0FF01102A2BDB10F0070F08D010F80C
:100DC000013B013A8B422DD010F0070F42B3F6D110
:100DD000F0B441EA012141EA014122F007047FF029
:100DE00000070023F0E80256083C85EA010586EA80
:100DF000010685FA47F5A3FA87F586FA47F6A5FABC
:100E000087F68EB9EED1F0BC01F0FF0102F00702C7
:100E100032B110F8013B013A83EA010313B1F8D172
:100E20000020704701387047002D06BF3546033853
:100E3000073815F0010F07D1013015F4807F02BF8C
:100E4000013015F4C03F0130F0BC0138704700BFDD
:100E5000844641EA000313F003036DD1403A41D3C5
:100E600051F8043B40F8043B51F8043B40F8043B84
:100E700051F8043B40F8043B51F8043B40F8043B74
:100E800051F8043B40F8043B51F8043B40F8043B64
:100E900051F8043B40F8043B51F8043B40F8043B54
:100EA00051F8043B40F8043B51F8043B40F8043B44
:100EB00051F8043B40F8043B51F8043B40F8043B34
:100EC00051F8043B40F8043B51F8043B40F8043B24
:100ED00051F8043B40F8043B51F8043B40F8043B14
:100EE000403ABDD2303211D351F8043B40F8043BB4
:100EF00051F8043B40F8043B51F8043B40F8043BF4
:100F000051F8043B40F8043B103AEDD20C3205D3C3
:100F100051F8043B40F8043B043AF9D2043208D0BB
:100F2000D2071CBF11F8013B00F8013B01D30B882D
:100F300003806046704700BF082A13D38B078DD00B
:100F400010F003038AD0C3F10403D21ADB071CBFDD
:100F500011F8013B00F8013B80D331F8023B20F847
:100F6000023B7BE7043AD9D3013A11F8013B00F880
:100F7000013BF9D20B7803704B7843708B78837008
:100F80006046704700000000000000000000000004
:100F90000000000000000000000000000000000051
:100FA0000000000000000000000000000000000041
:100FB0000000000000000000000000000000000031
:100FC00090F800F06DE9024520F007016FF0000C89
:100FD00010F0070491F820F040F049804FF0000431
:100FE0006FF00700D1E9002391F840F000F108000C
:100FF00082FA4CF2A4FA8CF283FA4CF3A2FA8CF344
:101000004BBBD1E9022382FA4CF200F10800A4FAAA
:101010008CF283FA4CF3A2FA8CF3E3B9D1E90423FE
:1010200082FA4CF200F10800A4FA8CF283FA4CF335
:10103000A2FA8CF37BB9D1E9062301F1200182FAEF
:101040004CF200F10800A4FA8CF283FA4CF3A2FAF5
:101050008CF3002BC6D0002A04BF04301A4612BA03
:10106000B2FA82F2FDE8024500EBD2007047D1E906
:10107000002304F00305C4F100004FEAC50514F095
:10108000040F91F840F00CFA05F562EA05021CBF66
:1010900063EA050362464FF00004A9E74FEA410CFA
:1010A0007FEA6C5C02D150EA013C0AD14FEA430C62
:1010B0007FEA6C5C02D152EA033C02D14FF000009F
:1010C00070474FF0010070474FEA410212F50012DD
:1010D00015D211D56FF47873B3EB625212D94FEA7F
:1010E000C12343F0004343EA505311F0004F23FA69
:1010F00002F018BF404270474FF00000704750EABE
:10110000013005D111F0004008BF6FF0004070477A
:101110004FF00000704700BF10B584B0002300936B
:101120000193029303934348434A02604FF4803291
:101130004260836001220261037680F8202008214A
:1011400041624FF08054C4624FF0C0648462C36057
:10115000C16180F83020436101F048F800284DD18A
:10116000002300930122019202936946314801F065
:101170000DF9002845D1012300930223019369460C
:101180002C4801F003F900283ED1022300930323E9
:1011900001936946274801F0F9F8002837D1032365
:1011A0000093042301936946224801F0EFF888BBBD
:1011B000042300930523019369461E4801F0E6F8D5
:1011C00058BB05230093062301936946194801F093
:1011D000DDF828BB082300930723019369461548CF
:1011E00001F0D4F8F8B90923009308230193694664
:1011F000104801F0CBF8C8B904B010BD00F0E4F914
:10120000AEE700F0E1F9B6E700F0DEF9BDE700F087
:10121000DBF9C4E700F0D8F9CAE700F0D5F9D0E768
:1012200000F0D2F9D6E700F0CFF9DCE700F0CCF916
:10123000E2E700BFD40900200020014070B588B06B
:10124000002303930493059306930793026803F125
:10125000804303F590339A4201D008B070BD044634
:101260000025009503F58C335A6C42F480725A6461
:101270005A6C02F480720092009A01951A6B42F047
:1012800001021A631A6B02F001020192019A02959F
:101290001A6B42F002021A631B6B03F00203029303
:1012A000029B3F2303930326049603A9184801F0E9
:1012B000C3FB03960496059503A9164801F0BCFBF1
:1012C0001548164B036045608560C5604FF4806328
:1012D00003614FF4006343614FF4005383614FF4A3
:1012E0008073C3614FF440330362456201F0F2F949
:1012F00058B9094BA3639C6300221146122001F0E8
:1013000025F9122001F05AF9A7E700F05DF9F0E79E
:1013100000000240000402401C0A00201064024049
:1013200010B582B000240194194B1A6B42F480026C
:101330001A631B6B03F480030193019B2246214631
:10134000382001F003F9382001F038F9224621460F
:10135000392001F0FBF8392001F030F9224621460E
:101360003A2001F0F3F83A2001F028F9224621460C
:10137000452001F0EBF8452001F020F922462146F6
:10138000462001F0E3F8462001F018F902B010BD44
:10139000003802402DE9F0438BB0002405940694F8
:1013A00007940894099401943C4B1A6B42F0040290
:1013B0001A631A6B02F004020192019A02941A6BEA
:1013C00042F080021A631A6B02F080020292029AC3
:1013D00003941A6B42F001021A631A6B02F00102C5
:1013E0000392039A04941A6B42F002021A631B6B75
:1013F00003F002030493049B294E01224FF4005191
:10140000304601F088FC274F01220421384601F0C4
:1014100082FCDFF8948001224FF40041404601F045
:101420007AFC4FF400530593012506950794089420
:1014300005A9304601F000FB4FF480430593069464
:10144000079505A9304601F0F7FA4FF40049CDF8A9
:1014500014900694079405A9304601F0EDFA042390
:101460000593069507940326089605A9384601F0CA
:10147000E3FA4FF4A05305930694079505A938465F
:1014800001F0DAFACDF8149006950794089605A9AC
:10149000404601F0D1FA0BB0BDE8F08300380240BD
:1014A00000080240000402400000024008B50B485A
:1014B0000B4B03600B4B436000238360C3604FF40E
:1014C0008042026143618361C361036201F076FE81
:1014D00000B908BD00F078F8FBE700BF7C0A0020E7
:1014E00000540040A086010030B589B0002303936A
:1014F00004930593069307930268144B9A4201D014
:1015000009B030BD00250195114C236B43F0020357
:101510002363236B03F002030193019B4FF4407399
:10152000039312230493032306930423079303A92D
:10153000084801F081FA0295236C43F400132364F8
:10154000236C03F400130293029BD9E7005400407C
:10155000003802400004024002680B4B9A4200D05F
:10156000704710B5094A136C23F400131364084C38
:101570004FF48071204601F03FFB4FF4007120468C
:1015800001F03AFB10BD00BF00540040003802409B
:10159000000402400EB430B5A2B0054625AB53F8A6
:1015A000042B2193802101A804F032F804464FF067
:1015B000FF3382B201A9284603F09FFA204622B0E9
:1015C000BDE8304003B0704772B6FEE700B595B095
:1015D0003022002108A803F0C9FF002303930493DD
:1015E0000593069307930193214A116C41F08051B2
:1015F0001164126C02F080520192019A02931D4A0A
:10160000136823F4404343F400431360136803F466
:1016100040430293029B012308934FF480330993C4
:1016200002230E934FF480030F93192310934FF46A
:10163000A8731193042312930723139308A802F0AD
:1016400071F980B90F2303930221049100230593BC
:101650004FF480520692079303A802F0B1FB20B921
:1016600015B05DF804FBFFF7AFFFFFF7ADFF00BF5C
:10167000003802400070004000B5C9B000F0DCFC4A
:10168000FFF7A4FFFFF786FEFFF74AFEFFF70EFF06
:10169000FFF742FD00F046F800F044FB00F0AEF921
:1016A00000F0AEFB00F024FC00F070F900F0D8F977
:1016B00003F030FE50B916491648FFF76BFF09E0FA
:1016C00015491448FFF766FF03F0CEFE03F022FE33
:1016D0000028F5D14FF490720021684603F046FFD0
:1016E00000224FF400510D4801F015FB684603F04D
:1016F00041FE0098FEF7E8FE02460B460849054801
:10170000FFF748FF4FF47A7000F0C2FCE8E700BF33
:1017100030B70008CC0D002038B7000800080240A0
:1017200040B7000808B50D480D4B03604FF48273B5
:10173000436000238360C360036143614FF4007220
:101740008261C3610362436283620A23C36202F05F
:101750000DFC00B908BDFFF737FFFBE7D00A0020FA
:101760000030014000B589B0002303930493059332
:10177000069307930268154B9A4202D009B05DF8B0
:1017800004FB0021019103F584335A6C42F480522A
:101790005A645A6C02F480520192019A02911A6BB7
:1017A00042F002021A631B6B03F002030293029BD6
:1017B00038230393022304930323069305230793FB
:1017C00003A9034801F038F9D8E700BF0030014011
:1017D0000004024082B0002100910B4B5A6C42F48D
:1017E00080425A645A6C02F480420092009A01913D
:1017F0001A6C42F080521A641B6C03F08053019300
:10180000019B02B0704700BF00380240FEE7FEE7D0
:10181000FEE7FEE7FEE770477047704708B500F047
:1018200025FC08BD08B5024800F00EFD08BD00BF4C
:10183000D409002008B5034802F0B0FC024802F0C9
:10184000ADFC08BD4C0C0020940C002008B50248EB
:1018500002F0A4FC08BD00BF240D002008B502481A
:1018600003F042FA08BD00BFCC0D002008B50248C5
:1018700000F0F4FF08BD00BF1C0A002008B50248B4
:1018800000F0ECFF08BD00BF2C0B002008B502489B
:1018900000F0E4FF08BD00BF8C0B002008B5024833
:1018A00000F0DCFF08BD00BFEC0B002008B50248CB
:1018B00000F0D4FF08BD00BF6C0D00200120704770
:1018C00008B503F029FE162303604FF0FF3008BD72
:1018D00008B54FF0FF31FFF7F3FFFEE770B50C4698
:1018E0001646002506E0AFF30080214601F8010B03
:1018F00001350C46B542F6DB304670BD70B50C467E
:101900001646002504E014F8010BAFF30080013502
:10191000B542F8DB304670BD4FF0FF3070474FF4F2
:1019200000534B6000207047012070470020704733
:1019300010B503460C4A0D490D48006840B10C48EB
:1019400000680344521A934206D8094A136010BD36
:101950000748084C0460F2E703F0DEFD0C23036047
:101960004FF0FF30F3E700BF00000120001000003F
:10197000280B002068130020034AD2F8883043F473
:101980007003C2F88830704700ED00E000B587B002
:101990000023029303930493059300930193164845
:1019A0004FF0804202605322426083606322C26033
:1019B00003618023836102F0FDFC98B94FF48053EA
:1019C000029302A90C4802F056FE70B9202300933E
:1019D000002301936946084802F0CCFE40B907B0E5
:1019E0005DF804FBFFF7F0FDE8E7FFF7EDFDEDE73D
:1019F000FFF7EAFDF3E700BFDC0C002000B58DB077
:101A00002422002103A803F0B1FD002301930293D7
:101A10001148124A0260436083604FF6FF72C26051
:101A2000036180238361012303930593099303A931
:101A300002F018FD50B900230193029301A9064852
:101A400002F098FE28B90DB05DF804FBFFF7BCFD6D
:101A5000F1E7FFF7B9FDF6E7240D00200004004090
:101A600008B50A480A4B03601B23436000238360C8
:101A700040F2E732C26003618023836102F09AFC86
:101A800000B908BDFFF7A0FDFBE700BF940C0020E4
:101A9000004801400268434B9A4200D0704710B59D
:101AA00082B00446002301933F4A516C41F001018A
:101AB0005164526C02F001020192019A3B483C4A87
:101AC00002604FF04062426040228260C3604FF487
:101AD000806202614FF4006242614FF40052826101
:101AE0004FF48072C2614FF440320262436200F0F0
:101AF000F1FD00284DD12D4B63629C632D482E4B88
:101B000003604FF040634360402383600023C36061
:101B10004FF4806202614FF4006242614FF4005260
:101B200082614FF48072C2614FF4403202624362BC
:101B300000F0D0FD00282FD11E4BA3629C631F48EC
:101B40001F4B03604FF040634360402383600023DA
:101B5000C3604FF4806202614FF4006242614FF44F
:101B6000005282614FF48072C2614FF440320262CF
:101B7000436200F0AFFD90B9104BE3629C6300221A
:101B800011461A2000F0E2FC1A2000F017FD02B006
:101B900010BDFFF719FDAEE7FFF716FDCCE7FFF725
:101BA00013FDE9E700000140003802402C0B002043
:101BB000286402408C0B002040640240EC0B0020A3
:101BC000A064024000B583B00368B3F1804F05D034
:101BD000134A93420FD003B05DF804FB0023009337
:101BE000104B1A6C42F001021A641B6C03F00103E3
:101BF0000093009BEFE7002101910A4B5A6C42F4DD
:101C000080225A645B6C03F480230193019B0A4693
:101C10001A2000F09BFC1A2000F0D0FCDBE700BF8C
:101C2000004801400038024010B588B000230393FB
:101C300004930593069307930268174B9A4201D0C9
:101C400008B010BD0024019403F50D331A6C42F066
:101C500002021A641A6C02F002020192019A0294C2
:101C60001A6B42F001021A631B6B03F0010302932B
:101C7000029BC023039302230493079303A90748FD
:101C800000F0DAFE224621461D2000F05FFC1D20F8
:101C900000F094FCD4E700BF0004004000000240C4
:101CA00070B588B0002303930493059306930793BC
:101CB0000268194B9A4201D008B070BD002401940B
:101CC00003F59C331A6B42F002021A631A6B02F09E
:101CD00002020192019A02941A6B42F001021A6305
:101CE0001B6B03F001030293029B4FF460430393C9
:101CF000022604960125079503A9084800F09CFEDA
:101D00004FF4E0630393049605940694079503A9A2
:101D1000034800F091FECFE70000014000040240BC
:101D20000000024010B592B0002410941194099460
:101D30000A940B940C940D940E940F942022214637
:101D400001A803F013FC2C482C4B03604460846012
:101D500042F2CF03C360046144618023836102F0D7
:101D600055FB002836D100231093119310A9224867
:101D700002F000FD002830D16023099300220A926E
:101D80000B920C920D920E920F9209A91A4802F032
:101D9000F7FB28BB042209A9174802F0F1FB10BB8E
:101DA000082209A9144802F0EBFBF8B900230193BB
:101DB00002930393049305934FF400520692089301
:101DC00001A90D4802F014FD98B90B48FFF768FF10
:101DD00012B010BDFFF7F8FBC5E7FFF7F5FBCBE747
:101DE000FFF7F2FBD6E7FFF7EFFBD9E7FFF7ECFBD6
:101DF000DCE7FFF7E9FBE8E74C0C002000000140BE
:101E000008B50A480A4B03604FF4E13343600023EE
:101E10008360C36003610C2242618361C36102F08D
:101E20003DFE00B908BDFFF7CFFBFBE7CC0D00205E
:101E30000010014030B589B000230393049305934B
:101E400006930793026803F1804303F588339A42AF
:101E500001D009B030BD04460025019503F5943347
:101E60005A6C42F010025A645A6C02F0100201924D
:101E7000019A02951A6B42F002021A631B6B03F07F
:101E800002030293029BC0230393022304930323C0
:101E900006930723079303A9124800F0CDFD1248CB
:101EA000124B03604FF00063436040238360C560C2
:101EB0004FF48063036145618561C56105624562D8
:101EC00000F008FC58B9084B63639C63002211467C
:101ED000252000F03BFB252000F070FBB9E7FFF761
:101EE00073FBF0E7000402406C0D0020B864024070
:101EF00008B50B484FF0A04303600423436002225F
:101F0000C260002303618261C36103624362C362F2
:101F1000036301F06FFC00B908BDFFF755FBFBE759
:101F2000100E002030B589B000230393049305936D
:101F3000069307930368B3F1A04F01D009B030BDF9
:101F400000250195124C236B43F001032363236B9F
:101F500003F001030193019B4FF4C0530393022349
:101F60000493032306930A23079303A9094800F067
:101F700063FD636B43F0800363630295636C43F41A
:101F800080436364636C03F480430293029BD5E750
:101F90000038024000000240DFF834D00D480E49FE
:101FA0000E4A002302E0D458C4500433C4188C42B3
:101FB000F9D30B4A0B4C002301E013600432A24218
:101FC000FBD3FFF7D9FC03F0ADFAFFF755FB7047E1
:101FD0000000012000000020B809002084BB000898
:101FE000B809002068130020FEE7000010B5044681
:101FF0000E4B18784FF47A73B3FBF0F30C4A106869
:10200000B0FBF3F000F0E8FA68B90F2C01D9012019
:102010000AE0002221464FF0FF3000F097FA054B0E
:102020001C60002000E0012010BD00BF0400002063
:10203000000000200800002008B50B4B1A6842F48D
:1020400000721A601A6842F480621A601A6842F4D8
:1020500080721A60032000F067FA0F20FFF7C6FFB6
:10206000FFF7B8FB002008BD003C0240034A11689E
:10207000034B1B780B441360704700BF1C130020F8
:1020800004000020014B1868704700BF1C1300209B
:1020900038B50446FFF7F6FF0546B4F1FF3F02D01E
:1020A000044B1B781C44FFF7EDFF401BA042FAD302
:1020B00038BD00BF040000204A4B5A6822F4403269
:1020C0005A605A6841680A435A600268536823F4A8
:1020D0008073536002685368016943EA01235360C7
:1020E0000268536823F04073536002685368816844
:1020F0000B4353600268936823F4006393600268A3
:102100009368C1680B439360826A374B9A4257D0F9
:102110000268936823F07063936002689368816A31
:102120000B4393600268936823F040539360026806
:102130009368C16A0B4393600268936823F00203BB
:10214000936002689368017E43EA4103936090F8CC
:102150002030002B3FD00268536843F40063536083
:102160000268536823F46043536001684B68426A15
:10217000013A43EA42334B600268D36A23F47003A6
:10218000D3620168CB6AC269013A43EA0253CB6267
:102190000268936823F4007393600268936890F870
:1021A000301043EA412393600268936823F480630C
:1021B000936002689368416943EA812393607047A2
:1021C0000268936823F0706393600268936823F059
:1021D00040539360B0E70268536823F40063536090
:1021E000CAE700BF002301400100000F38B310B55B
:1021F0000446036C43B1236C13F0100F0BD0012085
:10220000002384F83C3010BDFFF718F80023636406
:1022100084F83C30EFE7236C23F4885323F0020367
:1022200043F0020323642046FFF746FF002060646A
:10223000236C23F0030343F001032364E0E7012050
:10224000704770477047704770B5044603681E6852
:102250005D6816F0020F2FD005F0200262B3026C09
:1022600012F0100F03D1026C42F4007202649A68FB
:1022700012F0405F19D1227EBAB9DA6A12F4700FF7
:1022800003D09A6812F4806F0FD15A6822F02002AE
:102290005A60236C23F480732364236C13F4805FEF
:1022A00003D1236C43F0010323642046FFF7C9FFE9
:1022B00023686FF012021A6005F0800316F0040F15
:1022C00037D0002B35D0236C13F0100F03D1236CC3
:1022D00043F40053236423689A6812F4401F21D109
:1022E0009A6B12F4401F03D09A6812F4806F19D1D0
:1022F0005A6812F4806F15D19A6812F0405F11D1BC
:10230000227E7AB95A6822F080025A60236C23F444
:1023100080532364236C13F4807F03D1236C43F038
:1023200001032364204600F0FDF823686FF00C02DF
:102330001A6005F0400316F0010F05D023B12368A1
:102340001B6813F0010F06D105F0806516F0200F11
:1023500000D065B970BD236C43F4803323642046FC
:10236000FFF770FF23686FF001021A60ECE7636CFF
:1023700043F00203636423686FF020051D6020466C
:10238000FFF761FF23681D60E4E7000030B482B00E
:102390000023019390F83C30012B00F0BB80012317
:1023A00080F83C300B68092B41D90468E2689BB285
:1023B00003EB43031E3B4FF0070C0CFA03F322EA36
:1023C0000303E3600468E2680B8803EB43031E3BEE
:1023D0008D6805FA03F31343E3604B68062B3DD881
:1023E0000468626B03EB8303053B4FF01F0C0CFA90
:1023F00003F322EA030363630468626B4B6803EB35
:102400008303053BB1F800C00CFA03F31343636385
:102410000268414B9A4251D002683F4B9A4256D0D3
:10242000002380F83C30184602B030BC7047046886
:1024300022699BB203EB43034FF0070C0CFA03F342
:1024400022EA03032361046822690B8803EB430338
:102450008D6805FA03F313432361BEE70C2B16D8EE
:1024600005682A6B03EB8303233B1F2404FA03F361
:1024700022EA03032B6305682A6B4B6803EB830393
:10248000233B0C8804FA03F313432B63C0E705686E
:10249000EA6A03EB8303413B1F2404FA03F322EAB5
:1024A0000303EB620568EA6A4B6803EB8303413B75
:1024B0000C8804FA03F31343EB62A9E70B68122BB1
:1024C000AAD1164A536843F480035360A4E70B680B
:1024D000103B012BA4D8114A536843F40003536006
:1024E0000B68102B9CD10E4B1B6802F1467202F553
:1024F0002E3202F28332A2FB03239B0C03EB8303F5
:102500005B00019302E0019B013B0193019B002BC7
:10251000F9D185E7022087E7002001400023014030
:102520000000002070470000074AD36823F4E063EE
:102530001B041B0C000200F4E060034343F0BF6384
:1025400043F40033D360704700ED00E000B5194B51
:10255000DB68C3F30223C3F1070CBCF1040F28BFEF
:102560004FF0040C03F1040EBEF1060F18D9033B23
:102570004FF0FF3E0EFA0CFC21EA0C0199400EFAD6
:1025800003F322EA0303194300280BDB0901C9B254
:1025900000F1604000F5614080F800135DF804FB35
:1025A0000023E5E700F00F000901C9B2024B1954FE
:1025B000F4E700BF00ED00E014ED00E0002807DBC9
:1025C00000F01F02400901239340024A42F82030E4
:1025D000704700BF00E100E00138B0F1807F0BD20E
:1025E0004FF0E0235861054AF02182F823100020C3
:1025F000986107221A6170470120704700ED00E0E2
:1026000010B40368D9B210390C4AA2FB0142120976
:102610000B4CA25CC2655F2909D923F47F7323F0B8
:10262000030304338365806D5DF8044B704723F426
:102630007F7323F003038365F5E700BFABAAAAAA63
:1026400064B70008836A826992B9012B0AD0022B11
:1026500002D00BB100207047C36A13F0807F28D1ED
:1026600000207047C36AB3F1C07F24D000207047B8
:10267000B2F5005F09D0022B25D9032B25D1C36AFF
:1026800013F0807F23D100207047032B03D8DFE8AD
:1026900003F01404140A00207047C36A13F0807F0B
:1026A0000DD100207047C36AB3F1C07F09D000206C
:1026B00070470120704701207047012070470120BA
:1026C00070470120704701207047002070470120AB
:1026D0007047000070B50446FFF7D4FC002C5BD0B7
:1026E0000546022384F83530002384F8343022680C
:1026F000136823F00103136023681A6812F0010FB6
:102700000AD0FFF7BFFC431B052BF5D920236365D7
:10271000032084F8350070BD1A68204810406168B5
:10272000A2680A43E1680A4321690A4361690A43CE
:10273000A1690A43E1690A43216A0A430243616AC3
:1027400004291ED01A602668756925F00705636A9A
:102750001D43042B07D1A36A1D43E36A1BB1204626
:10276000FFF770FF90B975612046FFF749FFE26DF2
:102770003F239340836000206065012384F8353057
:10278000C9E7E16A206B01430A43DBE74023636545
:10279000012084F83500BEE70120BCE73F8010F03F
:1027A00070B50446866DFFF76DFC94F83530DBB2EA
:1027B000022B06D080236365002384F83430012087
:1027C00070BD05462268136823F016031360226863
:1027D000536923F080035361236CE3B122681368CB
:1027E00023F0080313602268136823F001031360C9
:1027F00023681B6813F0010F11D0FFF743FC431B44
:10280000052BF5D920236365032084F835000023C8
:1028100084F83430D4E7A36C002BDFD1E3E7E26D1A
:102820003F239340B360012384F83530002084F8BF
:102830003400C5E790F83530DBB2022B03D080239B
:10284000436501207047052380F83530026813681E
:1028500023F001031360002070470000F0B583B03F
:10286000044600230193724B1D68724BA3FB053590
:10287000AD0A876D3E68C26D08239340334210D085
:1028800003681A6812F0040F0BD01A6822F00402D1
:102890001A60C26D08239340BB60436D43F001038F
:1028A0004365E26D01239340334209D022685269A7
:1028B00012F0800F04D0BB60636D43F002036365C8
:1028C000E26D04239340334209D02268126812F06B
:1028D000020F04D0BB60636D43F004036365E26DD7
:1028E00010239340334224D02268126812F0080F5C
:1028F0001FD0BB6023681A6812F4802F0DD01B68AC
:1029000013F4002F04D1236C9BB12046984710E0AC
:10291000A36C73B1204698470BE01A6812F4807FCD
:1029200003D11A6822F008021A60236C0BB120460A
:102930009847E26D20239340334255D022681268B5
:1029400012F0100F50D0BB6094F83530DBB2052B7D
:102950000ED023681A6812F4802F33D01B6813F44A
:10296000002F2AD1636C002B3ED0204698473BE0D5
:102970002268136823F0160313602268536923F05A
:1029800080035361236CA3B12268136823F008030A
:102990001360E26D3F239340BB60012384F8353020
:1029A000002384F83430236D002B3FD02046984715
:1029B0003CE0A36C002BE7D1EBE7E36BA3B120462F
:1029C000984711E01A6812F4807F09D11A6822F042
:1029D00010021A60012384F83530002384F8343063
:1029E000E36B0BB120469847636DFBB1636D13F049
:1029F000010F17D0052384F835302268136823F0BF
:102A000001031360019B01330193AB4204D8236897
:102A10001B6813F0010FF5D1012384F83530002332
:102A200084F83430E36C0BB12046984703B0F0BD16
:102A300000000020B5814E1B00230F2B00F2D28036
:102A400070B582B060E085685E000324B44025EA7A
:102A50000405CC68B4402C438460456825EA02052F
:102A60004C68C4F300129A402A4342605AE0DC08E2
:102A7000083450F8246003F0070295000F22AA40A2
:102A800026EA020E0A69AA4042EA0E0240F8242011
:102A90005CE0042200E0002202FA0EF22A43023433
:102AA000514D45F82420514A94686FEA0C0224EAFB
:102AB0000C054E6816F4801F01D04CEA04054B4CFF
:102AC000A560E46802EA04054E6816F4001F01D010
:102AD0004CEA0405454CE560646802EA04054E686A
:102AE00016F4003F01D04CEA0405404C65602468B0
:102AF00022404D6815F4803F01D04CEA04023B4C63
:102B0000226001330F2B6BD801229A400C6804EA33
:102B1000020C32EA0404F4D14C6804F00304013CD2
:102B2000012C90D94A6802F00302032A09D0C46834
:102B30005D000322AA4024EA02048A68AA402243D4
:102B4000C2604A6802F00302022A90D004684FEA89
:102B5000430E032202FA0EF224EA02044A6802F04B
:102B6000030202FA0EF2224302604A6812F4403F66
:102B7000C7D0002201921E4A546C44F4804454642D
:102B8000526C02F480420192019A9C08A51C164ADC
:102B900052F8255003F003024FEA820E0F2202FA88
:102BA0000EF225EA0205134A90423FF474AF02F593
:102BB000806290420ED002F5806290420CD002F505
:102BC000806290420AD002F5806290423FF461AF89
:102BD000072261E701225FE702225DE703225BE74C
:102BE00002B070BD704700BF00380140003C01409A
:102BF000003802400000024000230F2B7CD8F0B5C3
:102C00002DE0042500E0002505FA0CFCA44557D072
:102C100004685D004FF0030C0CFA05FC24EA0C0478
:102C200004604FEAD30E0EF1080E50F82E4003F068
:102C30000705AE000F25B54024EA050440F82E40F4
:102C4000C46824EA0C04C460446824EA02024260B6
:102C5000826822EA0C02826001330F2B4BD80122DA
:102C60009A4002EA010632EA0104F5D14FEA930ED6
:102C70000EF10205214C54F8254003F0030C4FEAF5
:102C80008C0C0F2505FA0CF73C401D4DA842BAD01C
:102C900005F58065A8420DD005F58065A8420BD0EA
:102CA00005F58065A84209D005F58065A842A8D041
:102CB0000725A9E70125A7E70225A5E70325A3E73F
:102CC000104C256825EA06052560656825EA060595
:102CD0006560E56825EA0605E560A56825EA06065B
:102CE000A660064E0EF1020456F8245025EA0705A8
:102CF00046F824508CE7F0BD704700BF0038014013
:102D000000000240003C01400369194201D001204B
:102D10007047002070470AB18161704709048161E2
:102D2000704703685A6912F4806F01D10020704720
:102D30006FF480625A6100230363202280F83D20F3
:102D400080F83E30026C42F00402026480F83C30AD
:102D5000012070472DE9F04107460D4690461E467A
:102D600024E0FFF78FF9069BC01AB04200D8EEB9F5
:102D700000233B63202287F83D2087F83E303A6CE1
:102D800042F020023A6487F83C3001201EE03B68A4
:102D90009C6925EA040C1FFA8CFCBCFA8CFC4FEAF7
:102DA0005C1CE04511D1B6F1FF3FDAD1C5F3074312
:102DB000012BECD13B685B6925EA030C1FFA8CFC04
:102DC000BCFA8CFC4FEA5C1CEBE70020BDE8F0810C
:102DD0002DE9F04105460E46174698463DE01A6833
:102DE00042F400721A602B686FF480625A6100230B
:102DF0002B63202285F83D2085F83E302A6C42F076
:102E000004022A6485F83C30012034E0FFF73AF9E7
:102E1000A0EB0800B84200D8FFB900232B632022A2
:102E200085F83D2085F83E302A6C42F020022A6465
:102E300085F83C3001201EE02B689C6926EA0404DA
:102E4000A4B2003C18BF0124A4B12B685A6912F443
:102E5000806FC4D1B7F1FF3FD8D1C6F30743012B30
:102E6000EAD12B685C6926EA0404A4B2003C18BFCE
:102E70000124E9E70020BDE8F08170B504460D4665
:102E8000164623685B6913F0800F1CD12046FFF7BC
:102E900048FFD0B9B5F1FF3FF3D0FFF7F3F8801B3F
:102EA000A84201D8002DECD100232363202284F80E
:102EB0003D2084F83E30226C42F02002226484F8E7
:102EC0003C30012000E0002070BD0120FCE7000044
:102ED0002DE9F04385B004460D4691461F46DDF8C6
:102EE00030800D9E0368196841F480711960009666
:102EF000434600224FF00111FFF72CFF60B9236811
:102F000005F0FE051D613346424626492046FFF77F
:102F10005FFF68B1012008E023681B6813F4807F1D
:102F200002D04FF400732364032005B0BDE8F083A2
:102F30000023039323685A6903929B690393039BBD
:102F4000324641462046FFF798FF30B9012F0FD196
:102F500023685FFA89F61E61E7E7236C042B01D032
:102F60000120E2E72268136843F400731360F7E777
:102F700023684FEA19221A61324641462046FFF77C
:102F80007CFF20B923685FFA89F61E61CDE7236CC8
:102F9000042B01D00120C8E72268136843F40073B2
:102FA0001360F7E7020001002DE9F04784B0044602
:102FB0000D46164699460C9FDDF83480026813686A
:102FC00043F4806313600368196841F480711960E9
:102FD000CDF800803B4600224FF00111FFF7BAFE0A
:102FE00070B95FFA85FA236805F0FE051D61434656
:102FF0003A4641492046FFF7EBFE68B1012008E060
:1030000023681B6813F4807F02D04FF4007323649D
:10301000032004B0BDE8F0870023039323685A69B6
:1030200003929B690393039B424639462046FFF770
:1030300024FF80B9B9F1010F18D12368F6B21E61DF
:10304000424639462046FFF718FF68B3236C042B2D
:1030500024D00120DDE7236C042B01D00120D8E728
:103060002268136843F400731360F7E72368320A99
:103070001A61424639462046FFF7FFFE18B9236819
:10308000F6B21E61DCE7236C042B01D00120C0E7FF
:103090002268136843F400731360F7E7226813682B
:1030A00043F400731360D4E72268136843F4807319
:1030B0001360CDF800803B4600224FF001112046FE
:1030C000FFF748FE68B922684AF0010313614346DE
:1030D0003A4609492046FFF77BFE002899D0012097
:1030E00097E723681B6813F4807F02D04FF40073C6
:1030F000236403208DE700BF0200010070B5044681
:103100000D46164623685B6913F0040F1CD1204658
:10311000FFF707FED0B9B5F1FF3FF3D0FEF7B2FFDE
:10312000801BA84201D8002DECD10023236320226C
:1031300084F83D2084F83E30226C42F02002226464
:1031400084F83C30012000E0002070BD0120FCE745
:1031500070B505460C4616462B68596911F0400FAC
:1031600029D1596911F0100F15D1FEF78BFF801B83
:10317000A04201D8002CEFD100232B63202285F838
:103180003D2085F83E302A6C42F020022A6485F802
:103190003C30012070BD6FF010025A6100232B6398
:1031A000202285F83D2085F83E302A6C2A6485F877
:1031B0003C300120EEE70020ECE70000002800F0A2
:1031C000CC8070B5044690F83D30002B77D0242396
:1031D00084F83D302268136823F0010313602268ED
:1031E000136843F4004313602268136823F4004318
:1031F000136000F09BFE62685A4B9A4264D85A4BA7
:1032000098428CBF00230123002B40F0A88057492F
:10321000A1FB00318B0C25686A6822F03F0242EA6C
:1032200091426A6021680A6A22F03F0266684D4D49
:10323000AE424FD8013313430B622168CA6922F4AE
:103240004F4222F0FF026668464B9E424CD8431E16
:103250007600B3FBF6F3013340F6FC70034278D0FE
:10326000C3F30B031343CB6121680B6823F0C00346
:10327000E269206A024313430B6021688B6823F4E0
:10328000034323F0FF032269E068024313438B608A
:103290002168CB6823F0FF036269A06902431343EE
:1032A000CB602268136843F00103136000202064A0
:1032B000202384F83D30206384F83E0070BD80F800
:1032C0003C30FEF711F982E7294B98428CBF00236E
:1032D000012399E74FF4967505FB03F3254DA5FBF4
:1032E00003539B090133A6E7A368BBB9451E06EB50
:1032F000460CB5FBFCF50135C5F30B05B5FA85F5B4
:103300006D0945BBC3B9013806EB4603B0FBF3F3C7
:103310000133C3F30B0343F40043A3E7451E06EB5D
:10332000860C0CEB8C0CB5FBFCF50135C5F30B05DD
:10333000B5FA85F56D09E4E7013806EB860303EB82
:103340008303B0FBF3F30133C3F30B0343F44043B4
:1033500088E7042386E7012384E7012070470120E2
:10336000ACE700BFA08601007F841E0083DE1B4304
:10337000FF083D00D34D6210A8B110B504462423C8
:1033800080F83D300268136823F001031360FEF7F4
:10339000E3F80020206484F83D00206384F83E00B8
:1033A00084F83C0010BD0120704700002DE9F04377
:1033B00083B004460F46904699460C9EFEF762FE87
:1033C000054694F83D00C0B2202803D0022003B087
:1033D000BDE8F0830095192301224B492046FFF7F1
:1033E000B9FC002840F0898094F83C30012B00F0B3
:1033F0008680012384F83C3023681A6812F0010F9C
:1034000003D11A6842F001021A602268136823F49B
:1034100000631360212384F83D30402384F83E305C
:10342000002323640A9B6362BDF82C306385638D9F
:103430002385364BE362019500964B46424639465A
:103440002046FFF745FD00285BD1238D002B35D0AA
:103450002A4631462046FFF710FD20BB626A2368EA
:1034600012781A61626A531C6362218D013989B234
:103470002185638D9BB2013B9BB2638523685869AC
:1034800010F0040FE1D00029DFD052781A61636A8E
:1034900001336362238D013B2385638D9BB2013B26
:1034A0009BB26385D1E7236C042B01D001208EE70A
:1034B0002268136843F400731360F7E72A46314625
:1034C0002046FFF71BFE50B1236C042B01D00120D6
:1034D0007DE72268136843F400731360F7E72268FE
:1034E000136843F400731360202384F83D300023F5
:1034F00084F83E3084F83C3069E7022067E7022018
:1035000065E7012063E700BF020010000000FFFF35
:103510002DE9F04387B004460F4690469946109E29
:10352000FEF7B0FD054694F83D00C0B2202804D057
:103530000227384607B0BDE8F08300951923012221
:1035400088492046FFF706FC002840F0438194F8A4
:103550003C30012B00F04081012384F83C3023688B
:103560001A6812F0010F03D11A6842F001021A60C2
:103570002268136823F400631360222384F83D302B
:10358000402384F83E30002323640E9B6362BDF821
:103590003C306385638D2385734BE3620195009610
:1035A0004B46424639462046FFF7FEFC07460028B8
:1035B00040F01481238D5BB9029323685A6902920B
:1035C0009A690292029A1A6842F400721A6075E0CF
:1035D000012B0AD0022B1AD00023059323685A69C5
:1035E00005929B690593059B68E02268136823F4A4
:1035F000806313600023039323685A6903929A69D6
:103600000392039A1A6842F400721A6056E0226824
:10361000136823F4806313602268136843F4006323
:1036200013600023049323685A6904929B690493EE
:10363000049B43E02A4631462046FFF789FD0028D7
:1036400040F0CE8023681A69636A1A70636A013396
:103650006362238D013B2385638D9BB2013B9BB24B
:1036600063852BE000953346002240492046FFF752
:1036700071FB002840F0B6802268136843F40073A1
:10368000136023681A69636A1A70626A531C636262
:10369000238D013B2385638D9BB2013B9BB26385E8
:1036A00023681B695370636A01336362238D013B96
:1036B0002385638D9BB2013B9BB26385238D002BD9
:1036C0007FD0032B54D8012BB4D0022BCAD0009545
:1036D0003346002225492046FFF73CFB002840F0F6
:1036E00083802268136823F48063136023681A6957
:1036F000636A1A70636A01336362238D013B238519
:10370000638D9BB2013B9BB26385009533460022DB
:1037100016492046FFF71EFB002867D12268136870
:1037200043F40073136023681A69636A1A70626A4B
:10373000531C6362238D013B2385638D9BB2013B48
:103740009BB2638523681B695370636A01336362AC
:10375000238D013B2385638D9BB2013B9BB2638527
:10376000ACE700BF020010000000FFFF04000100F2
:103770002A4631462046FFF7EBFC002838D1236863
:103780001A69636A1A70626A531C6362238D013B73
:103790002385638D9BB2013B9BB263852368596986
:1037A00011F0040F8AD01B695370636A013363629E
:1037B000238D013B2385638D9BB2013B9BB26385C7
:1037C0007CE7202384F83D30002384F83E3084F8E1
:1037D0003C30AEE60227ACE60227AAE60127A8E6BF
:1037E0000127A6E60127A4E60127A2E60127A0E615
:1037F00001279EE670B58AB0002800F0908005464B
:10380000046890F8BD343BB3032385F8BD34E36B03
:1038100013F4807F01D100232B61286801F011FC93
:103820002C4654F8106BEC460FCCACE80F000FCCD4
:10383000ACE80F0094E803008CE803002B1D0ECBCE
:10384000304601F0B9FB044658B1022385F8BD3477
:10385000012420460AB070BD80F8BC34FEF762FB3C
:10386000D2E70021286801F023FD234616E003EB90
:10387000C30205EB8202012182F83D1082F83C3040
:10388000A2F84430002182F840109164D16403EB27
:10389000C30205EB820251650133DBB269688B42DA
:1038A000E5D316E004EBC40305EB8303002283F8A1
:1038B0007D2283F87C4283F88022C3F88822C3F8F3
:1038C0008C2204EBC40305EB8303C3F89422013478
:1038D000E4B2A142E6D82C4654F8106BEC460FCC6B
:1038E000ACE80F000FCCACE80F0094E803008CE8C4
:1038F00003002B1D0ECB304601F000FC044620B126
:10390000022385F8BD340124A3E7002385F838306D
:10391000012385F8BD34286801F0B8FC99E701243B
:1039200097E70000002800F0E08170B582B00446FF
:10393000036813F0010F3BD09F4B9B6803F00C030F
:10394000042B2CD09C4B9B6803F00C03082B21D03C
:103950006368B3F5803F4FD0B3F5A02F52D0964B9C
:103960001A6822F480321A601A6822F480221A60DF
:103970006368002B50D0FEF785FB05468E4B1B6815
:1039800013F4003F14D1FEF77DFB401B6428F5D9EA
:103990000320B1E1884B5B6813F4800FD8D0864BCD
:1039A0001B6813F4003F03D06368002B00F09F8175
:1039B000236813F0020F54D07F4B9B6813F00C0F59
:1039C0003ED07D4B9B6803F00C03082B33D0E3689B
:1039D000002B68D0794B01221A60FEF753FB054695
:1039E000754B1B6813F0020F54D1FEF74BFB401BC5
:1039F0000228F5D903207FE16F4A136843F480332E
:103A00001360B5E76C4B1A6842F480221A601A689A
:103A100042F480321A60ABE7FEF734FB0546664B92
:103A20001B6813F4003FC3D0FEF72CFB401B642837
:103A3000F5D9032060E1604B5B6813F4800FC6D1B9
:103A40005D4B1B6813F0020F03D0E368012B40F0BD
:103A50005081594A136823F0F803216943EAC103EE
:103A60001360236813F0080F42D063696BB3534BA4
:103A70000122C3F8802EFEF705FB05464E4B5B6F17
:103A800013F0020F34D1FEF7FDFA401B0228F5D9DE
:103A9000032031E1484A136823F0F803216943EA1F
:103AA000C1031360DDE7454B00221A60FEF7EAFA16
:103AB0000546414B1B6813F0020FD2D0FEF7E2FA25
:103AC000401B0228F5D9032016E13C4B0022C3F825
:103AD000802EFEF7D7FA0546374B5B6F13F0020FC7
:103AE00006D0FEF7CFFA401B0228F5D9032003E1E8
:103AF000236813F0040F77D02F4B1B6C13F0805FFB
:103B000033D1002301932C4B1A6C42F080521A647B
:103B10001B6C03F080530193019B0125284B1B680C
:103B200013F4807F23D0A368012B34D0052B38D029
:103B3000214B1A6F22F001021A671A6F22F0040259
:103B40001A67A368002B3DD0FEF79CFA06461A4B75
:103B50001B6F13F0020F46D1FEF794FA801B41F25F
:103B600088339842F3D90320C6E00025D6E7144AEB
:103B7000136843F480731360FEF784FA0646104B13
:103B80001B6813F4807FCED1FEF77CFA801B0228DD
:103B9000F5D90320B0E0084A136F43F0010313671F
:103BA000CFE7054B1A6F42F004021A671A6F42F012
:103BB00001021A67C5E700BF003802400000474213
:103BC00000700040FEF75EFA0646524B1B6F13F082
:103BD000020F08D0FEF756FA801B41F28833984254
:103BE000F3D9032088E0EDB9A369002B00F08380AE
:103BF000484A926802F00C02082A51D0022B17D0D2
:103C0000454B00221A66FEF73DFA0446414B1B68FD
:103C100013F0007F42D0FEF735FA001B0228F5D9D9
:103C2000032069E03B4A136C23F080531364DBE705
:103C3000394B00221A66FEF725FA0546354B1B68FC
:103C400013F0007F06D0FEF71DFA401B0228F5D9BD
:103C5000032051E0E369226A1343626A43EA821354
:103C6000A26A5208013A43EA0243E26A43EA026363
:103C7000284A5360284B01221A66FEF703FA0446CD
:103C8000244B1B6813F0007F06D1FEF7FBF9001BE5
:103C90000228F5D903202FE000202DE000202BE0A2
:103CA000012B2BD01B4B5B6803F48001E26991422E
:103CB00026D103F03F02216A8A4223D1616A47F686
:103CC000C0721A40B2EB811F1ED103F44031A26AC8
:103CD0005208013AB1EB024F18D103F07063E26A67
:103CE000B3EB026F14D1002006E0012070470120E1
:103CF00002E0012000E0002002B070BD0120FBE7DF
:103D00000120F9E70120F7E70120F5E70120F3E7BB
:103D10000120F1E7003802400000474208B5254B7A
:103D20009B6803F00C03042B3FD0082B3FD1214BA1
:103D30005A6802F03F025B6813F4800F12D01D4BEB
:103D40005968C1F388111C480023A1FB0001FCF74E
:103D5000ADFE184B5B68C3F3014301335B00B0FB5E
:103D6000F3F025E0134B5968C1F3881C4FEA4C115E
:103D7000B1EB0C006EEB0E0E4FEA8E1343EA90632C
:103D80008101091A63EB0E03DB0043EA5173C9009A
:103D900011EB0C0C43F10003990200234FEA8C2035
:103DA00041EA9C51FCF782FED3E7034800E0034858
:103DB00008BD00BF0038024040787D010024F400B7
:103DC000002800F09B8070B50D4604464F4B1B68E1
:103DD00003F007038B4208D2CBB24C4A137013682E
:103DE00003F007038B4240F08B80236813F0020F2F
:103DF00017D013F0040F04D0454A936843F4E053FE
:103E00009360236813F0080F04D0414A936843F489
:103E1000604393603E4A936823F0F003A1680B432C
:103E20009360236813F0010F32D06368012B21D017
:103E30009A1E012A25D9364A126812F0020F61D063
:103E400033498A6822F0030213438B60FEF71AF9A4
:103E500006462F4B9B6803F00C036268B3EB820F9E
:103E600016D0FEF70FF9801B41F288339842F0D943
:103E7000032042E0264A126812F4003FE0D10120FC
:103E80003BE0234A126812F0007FD9D1012034E0D0
:103E90001E4B1B6803F00703AB4207D9EAB21B4B6A
:103EA0001A701B6803F00703AB422DD1236813F08F
:103EB000040F06D0164A936823F4E053E1680B43DD
:103EC0009360236813F0080F07D0114A936823F416
:103ED0006043216943EAC1039360FFF71FFF0C4B66
:103EE0009B68C3F303130B4AD35CD8400A4B18609A
:103EF0000A4B1868FEF77AF8002070BD0120704761
:103F00000120FAE70120F8E70120F6E7003C024033
:103F1000003802404CB700080000002008000020D4
:103F2000014B1868704700BF0000002008B5FFF77C
:103F3000F7FF044B9B68C3F38223034AD35CD8404A
:103F400008BD00BF003802405CB7000808B5FFF7A5
:103F5000E7FF044B9B68C3F34233034AD35CD8406A
:103F600008BD00BF003802405CB7000800285AD0E6
:103F700010B50446436A33B94368B3F5827F05D070
:103F80000023C36102E00023036143610023A362B5
:103F900094F85130002B40D0022384F8513022682D
:103FA000136823F040031360636803F48273A2680C
:103FB00002F404421343E26802F4006213432269EC
:103FC00002F002021343626902F001021343A26984
:103FD00002F400721343E26902F038021343226ACA
:103FE00002F080021343A26A02F4005221681343D4
:103FF0000B60638B03F00403626A02F01002216815
:1040000013434B602268D36923F40063D36100201B
:104010006065012384F8513010BD84F8503020468B
:10402000FDF7A0FBB8E701207047000070B4036AF9
:1040300023F001030362036A4668826922F0730277
:104040000C6844EA020523F002028B6813430D4C0E
:10405000A04209D00B4CA0420DD0466085614A6851
:104060004263036270BC704723F00803CA681343BD
:1040700023F00403EEE726F440764A6932438E6962
:104080001643EAE70000014030B4036A23F480736A
:104090000362036A4568C26922F073020C68224316
:1040A00023F400738C6843EA04230F4CA04209D028
:1040B0000D4CA0420ED04560C2614A68C2630362E3
:1040C00030BC704723F40063CC6843EA042323F434
:1040D0008063EDE725F440554C6945EA04158C6989
:1040E00045EA0415E7E700BF0000014030B4036A69
:1040F00023F480530362036A4468C26922F4E642EF
:104100000D6842EA052223F400538D6843EA053323
:10411000074DA84206D04460C2614A680264036247
:1041200030BC704724F480444D6944EA8514F2E7BA
:104130000000014010B4036A046A24F00104046220
:10414000846924F0F00C4CEA021223F00A030B43BA
:10415000826103625DF8044B704710B4046A24F076
:10416000100404628469036A24F4704C4CEA02323D
:1041700023F0A00343EA0113826103625DF8044B5C
:104180007047836823F070030B4343F00703836099
:1041900070477047704770477047704710B50446C6
:1041A00003681A6912F0020F11D0DA6812F0020FD8
:1041B0000DD06FF002021A610123037703689B6937
:1041C00013F0030F70D0FFF7E6FF00232377236877
:1041D0001A6912F0040F12D0DA6812F0040F0ED030
:1041E0006FF004021A610223237723689B6913F49A
:1041F000407F5FD02046FFF7CEFF00232377236860
:104200001A6912F0080F12D0DA6812F0080F0ED0F7
:104210006FF008021A61042323772368DB6913F027
:10422000030F4ED02046FFF7B6FF00232377236805
:104230001A6912F0100F12D0DA6812F0100F0ED0B7
:104240006FF010021A61082323772368DB6913F4E7
:10425000407F3DD02046FFF79EFF00232377236851
:104260001A6912F0010F03D0DA6812F0010F36D18B
:1042700023681A6912F0800F03D0DA6812F0800FF9
:1042800034D123681A6912F0400F03D0DA6812F0B3
:10429000400F32D123681A6912F0200F03D0DA6878
:1042A00012F0200F30D110BDFFF774FF2046FFF74A
:1042B00073FF8AE72046FFF76DFF2046FFF76CFF8C
:1042C0009BE72046FFF766FF2046FFF765FFACE758
:1042D0002046FFF75FFF2046FFF75EFFBDE76FF068
:1042E00001021A612046FFF754FFC1E76FF0800218
:1042F0001A61204600F0A6FAC3E76FF040021A6187
:104300002046FFF74AFFC5E76FF020021A612046FA
:1043100000F097FAC7E700000368254A90420ED0E4
:10432000B0F1804F0BD0A2F57C42904207D002F54D
:104330008062904203D002F58062904203D123F064
:1043400070034A6813431A4A90421AD0B0F1804F62
:1043500017D0A2F57C42904213D002F580629042C1
:104360000FD002F5806290420BD002F59A32904253
:1043700007D002F58062904203D002F5806290423D
:1043800003D123F44073CA68134323F080034A69BE
:10439000134303608B68C3620B688362044B9842CB
:1043A00002D00123436170470B690363F9E700BF43
:1043B0000000014040B310B5044690F83D30F3B121
:1043C000022384F83D30214651F8040BFFF7A4FF87
:1043D000012384F8463084F83E3084F83F3084F876
:1043E000403084F8413084F8423084F8433084F817
:1043F000443084F8453084F83D30002010BD80F80A
:104400003C30FDF7DFFBDBE70120704740B310B520
:10441000044690F83D30F3B1022384F83D30214644
:1044200051F8040BFFF778FF012384F8463084F835
:104430003E3084F83F3084F8403084F8413084F8CE
:10444000423084F8433084F8443084F8453084F8AE
:104450003D30002010BD80F83C30FDF71BFBDBE752
:1044600001207047002856D0F8B50D46044690F854
:104470003D30002B4AD0022384F83D3022689368F7
:1044800023F4804323F007039360214651F8040B83
:10449000FFF742FF21688A688B690E6A286810431B
:1044A00023F4407C2CF0030CAA68AB6942EA032396
:1044B00043EA0C0323F47C4323F0FC03EA69EF682E
:1044C00047EA022C4CEA030C2A6A13032A6943EADE
:1044D000021343EA0C0326F0AA066A686D6942EAF1
:1044E00005123243886021688B6123681A620123B8
:1044F00084F8463084F83E3084F83F3084F8423007
:1045000084F8433084F83D300020F8BD80F83C301A
:10451000FDF78AFBAFE701207047000030B4036A63
:1045200023F010030362036A4468826922F4E642BE
:104530000D6842EA052223F020038D6843EA051343
:104540000E4DA84209D00D4DA8420ED044608261A4
:104550004A688263036230BC704723F08003CD68F1
:1045600043EA051323F04003EDE724F440644D696A
:1045700044EA85048D6944EA8504E7E700000140C8
:1045800038B590F83C30012B66D004460D46012327
:1045900080F83C300C2A5AD8DFE802F00759595904
:1045A0001B5959593059595944000068FFF73EFDCD
:1045B0002268936943F0080393612268936923F0AA
:1045C000040393612268936929690B439361002076
:1045D0003EE00068FFF7A2FF2268936943F400639E
:1045E00093612268936923F48063936122689369DD
:1045F000296943EA01239361002029E00068FFF75D
:1046000043FD2268D36943F00803D3612268D3696C
:1046100023F00403D3612268D36929690B43D36172
:10462000002015E00068FFF761FD2268D36943F4BC
:104630000063D3612268D36923F48063D361226865
:10464000D369296943EA0123D361002000E00120F6
:10465000002384F83C3038BD0220FCE710B48468A5
:1046600024F47F4C42EA03220A4342EA0C028260AD
:104670005DF8044B704790F83C30012B78D010B5B2
:104680000446012380F83C30022380F83D30026864
:10469000936823F47F4323F0770393600B68602BC8
:1046A0004CD029D8402B54D00CD9502B22D1CA68D9
:1046B00049680068FFF73EFD50212068FFF761FD63
:1046C000002005E0202B0DD009D9302B0AD0012085
:1046D000012384F83D30002384F83C3010BD0BB139
:1046E000102B05D119462068FFF74BFD0020EFE79E
:1046F0000120EDE70120EBE7B3F5805F34D0B3F59F
:10470000005F0CD1CB684A6889680068FFF7A6FF94
:104710002268936843F4804393600020D8E7702BAD
:1047200024D1CB684A6889680068FFF797FF226840
:10473000936843F0770393600020C9E7CA6849682B
:104740000068FFF70AFD60212068FFF71AFD0020CE
:10475000BEE7CA6849680068FFF7ECFC40212068A2
:10476000FFF70FFD0020B3E70020B1E70120AFE71E
:104770000220704790F83C30012B35D010B4012353
:1047800080F83C30022380F83D3003685A689C680A
:1047900022F0700C0A6842EA0C025A600368134A5D
:1047A000934212D0B3F1804F0FD0A2F57C429342D6
:1047B0000BD002F58062934207D002F580629342EB
:1047C00003D002F59A32934204D124F080044A685F
:1047D00014439C60012380F83D30002380F83C3076
:1047E00018465DF8044B70470220704700000140F6
:1047F00090F83C30012B22D0012380F83C30CB686C
:1048000023F440738A68134323F480634A68134394
:1048100023F400630A68134323F480530A691343A3
:1048200023F400534A69134323F48043CA691343B2
:1048300002685364002380F83C3018467047022019
:10484000704770477047026802F10C0353E8003F5D
:1048500023F490730C3242E800310029F3D102684E
:1048600002F1140353E8003F23F00103143242E83D
:1048700000310029F3D1036B012B05D0202380F8F0
:104880003E30002303637047026802F10C0353E8D3
:10489000003F23F010030C3242E800310029F3D12D
:1048A000ECE790F83D30DBB2212B01D002207047BD
:1048B0008368B3F5805F17D0036A5A1C02621A78C6
:1048C00003685A60C38C9BB2013B9BB2C3844BB953
:1048D0000268D36823F08003D3600268D36843F092
:1048E0004003D360002070470369002BE4D1036AC2
:1048F0001B880268C3F308035360036A0233036230
:10490000E0E7000038B504460268136923F4405319
:10491000C1680B43136183680269134342691343FF
:10492000C2691A430168CB6823F4164323F00C03D1
:104930001343CB600268536923F4407381690B43CE
:1049400053610368314A934206D002F58062934274
:1049500002D0FFF7EBFA01E0FFF7F8FAE369B3F5ED
:10496000004F29D00021031849411B1841F10001D3
:10497000C90041EA5371DB00181863684FEA8302EB
:104980004FEA937341F10001FCF790F8204DA5FB2D
:1049900000325109642303FB11031B013233A5FBD1
:1049A00003235B0903F0F00202EB011203F00F0393
:1049B000216813448B6038BD0023021843EB0301C8
:1049C000121841F10001C90041EA5271D2001018D9
:1049D00041F10001626892185B41FCF767F80C4DE9
:1049E000A5FB00325109642303FB1103DB003233C2
:1049F000A5FB03235B095A0002F4F87202EB0112D3
:104A000003F00703216813448B60D4E700100140D2
:104A10001F85EB512DE9F84305460F46164699468A
:104A2000DDF820802C68246837EA04030CBF4FF0BF
:104A3000010C4FF0000CB4452DD1B8F1FF3FF1D07F
:104A4000B8F1000F05D0FDF71DFBA0EB09004045B4
:104A5000E8D92A6802F10C0353E8003F23F4D0732D
:104A60000C3242E800310029F3D12A6802F1140324
:104A700053E8003F23F00103143242E800310029DB
:104A8000F3D1202385F83D3085F83E30002385F8AA
:104A90003C30032000E00020BDE8F88358B310B597
:104AA000044690F83D300BB3242384F83D3022684F
:104AB000D36823F40053D3602046FFF723FF226816
:104AC000136923F4904313612268536923F02A0386
:104AD00053612268D36843F40053D36000202064FC
:104AE000202384F83D3084F83E3010BD80F83C30FF
:104AF000FDF7A0F9D8E7012070472DE9F04182B019
:104B00001E4690F83D30DBB2202B54D104460D46B2
:104B10009046002953D0002A53D090F83C30012B06
:104B200051D0012380F83C3000230364212380F816
:104B30003D30FDF7A7FA0746A4F82480A4F82680A4
:104B4000A368B3F5805F05D04FF00008002384F818
:104B50003C3012E0236913B14FF00008F6E7A84695
:104B60000025F3E738F8023B2268C3F308035360DB
:104B7000E28C92B2013A92B2E284E38C9BB273B1BE
:104B800000963B46002280212046FFF743FFE0B914
:104B9000002DE7D015F8012B23685A60E8E700964E
:104BA0003B46002240212046FFF734FF78B92023FE
:104BB00084F83D3000E0022002B0BDE8F081012021
:104BC000FAE70120F8E70220F6E70320F4E70320E4
:104BD000F2E7704708B50168CA6822F04002CA606F
:104BE000202280F83D20FFF7F4FF002008BD704729
:104BF000704708B5806B0023C385C384FFF7F8FFB7
:104C000008BD704790F83E30DBB2222B67D1836835
:104C1000B3F5805F4DD0826AB3F5805F04D0002B7E
:104C200054D10369002B51D103685B681370836A08
:104C300001338362C38D9BB2013B9BB2C385002BC2
:104C40004FD100B583B00268D36823F02003D3604E
:104C50000268D36823F48073D3600268536923F039
:104C600001035361202380F83E30036B012B33D1C5
:104C700000230363026802F10C0353E8003F23F0B2
:104C800010030C3242E800310029F3D103681A689E
:104C900012F0100F06D0002201921A6801925B6890
:104CA0000193019B818DFFF7ACFF002003B05DF8FD
:104CB00004FB0269002AAED1826A03685B68C3F311
:104CC00008031380836A02338362B3E703685B6877
:104CD00003F07F031370AAE7FFF789FFE5E70220DF
:104CE000704700207047000030B583B0044602686A
:104CF0001368D068516913F00F0505D113F0200F28
:104D000002D010F0200F19D12DB111F0010119D1ED
:104D100010F4907F16D1216B01297DD013F0800F04
:104D200003D010F0800F40F0158113F0400F03D036
:104D300010F0400F40F0128103B030BD2046FFF765
:104D400061FFF9E713F0010F06D010F4807F03D064
:104D5000226C42F00102226413F0040F04D019B156
:104D6000226C42F00202226413F0020F04D019B147
:104D7000226C42F00402226413F0080F07D010F0F6
:104D8000200F00D119B1226C42F008022264226C7B
:104D9000002AD1D013F0200F02D010F0200F29D11B
:104DA00023685B6903F04003226C12F0080F00D106
:104DB00063B32046FFF747FD23685B6913F0400F9C
:104DC00020D0226802F1140353E8003F23F040038F
:104DD000143242E800310029F3D1A36B73B1614A68
:104DE0001A65A06BFDF726FD0028A5D0A06B036D0A
:104DF0009847A1E72046FFF705FFD1E72046FFF7D8
:104E0000F7FE99E72046FFF7F3FE95E72046FFF708
:104E1000EFFE002323648FE713F0100F3FF47EAF03
:104E200010F0100F3FF47AAF002301931368019341
:104E300053680193019B536913F0400F50D0A26B4C
:104E400013685B689BB2002B3FF476AFA18D99424B
:104E50007FF672AFE385D369B3F5807F37D02268E0
:104E600002F10C0353E8003F23F480730C3242E854
:104E700000310029F3D1226802F1140353E8003F06
:104E800023F00103143242E800310029F3D12268F3
:104E900002F1140353E8003F23F04003143242E8C8
:104EA00000310029F3D1202384F83E30002323630E
:104EB000226802F10C0353E8003F23F010030C3288
:104EC00042E800310029F3D1A06BFDF769FCA18D08
:104ED000E38D9BB2C91A89B22046FFF792FE2BE7F9
:104EE000A18DE38D9BB2C91A89B2E38D9BB2002BD1
:104EF0003FF422AF00293FF41FAF226802F10C03F8
:104F000053E8003F23F490730C3242E8003000284D
:104F1000F3D1226802F1140353E8003F23F00103A8
:104F2000143242E800300028F3D1202384F83E30C8
:104F300000232363226802F10C0353E8003F23F0AF
:104F400010030C3242E800300028F3D12046FFF76E
:104F500058FEF1E62046FFF7A4FCEDE62046FFF7F9
:104F600039FEE9E6F34B000882B000230193019B70
:104F700001330193019A0F4B9A4215D80369002B14
:104F8000F5DA00230193036943F001030361019BF8
:104F900001330193019A074B9A4208D8036913F031
:104FA000010FF4D1002000E0032002B0704703207D
:104FB000FBE700BF400D030084B010B5044603A812
:104FC00080E80E00089B012B1FD1A36B23F48033D4
:104FD000A363E36823F4840323F04003E360E368FE
:104FE00023F44013E3600F9B012B09D02046FFF709
:104FF000BBFF069B012B1BD0BDE8104004B07047DF
:10500000E36843F48013E360F0E7E36843F04003B0
:10501000E3602046FFF7A8FF0C9B23B9A36B43F482
:105020008033A363E5E7A36B23F48033A363E0E756
:10503000A36843F00603A360A36843F02003A360C2
:10504000DAE7836823F001038360002070470000E3
:1050500082B000230193019B01330193019A0F4B0E
:105060009A4215D80369002BF5DA002301938901D0
:1050700041F020010161019B01330193019A074B2B
:105080009A4208D8036913F0200FF4D1002000E001
:10509000032002B070470320FBE700BF400D030070
:1050A00082B000230193019B01330193019A0E4BBF
:1050B0009A4213D80369002BF5DA002301931023D9
:1050C0000361019B01330193019A074B9A4208D86F
:1050D000036913F0100FF4D1002000E0032002B0A8
:1050E00070470320FBE700BF400D0300D0F80038F5
:1050F0001943C0F8001800207047000084B02DE963
:10510000F041044607A880E80E00002306E003F102
:10511000400204EB82020021516001330E2BF6D9CC
:10512000119F27BBD4F8043843F00203C4F80438B5
:10513000A36B43F40013A363A36B23F40023A363C3
:10514000A36B23F48023A3630023C4F8003E04F57B
:105150000065D4F80038C4F800380C9B012B14D13A
:10516000099B6BB900212046FFF7C0FF11E0A36B3C
:1051700023F40013A363A36B43F40023A363E3E7C7
:1051800001212046FFF7B2FF03E003212046FFF78D
:10519000ADFF10212046FFF75BFF804608B14FF0BE
:1051A00001082046FFF77CFF08B14FF001080023FB
:1051B0002B616B61EB610AE0C3B94FF00060C2F88C
:1051C000000900220A614FF67F328A600133079995
:1051D000994210D904EB431202F51061D2F800098C
:1051E0000028E9DB0020C2F80009EAE74FF0904010
:1051F000C2F80009E5E700230AE0C3B14FF0904C84
:10520000C2F800CB002202614FF67F328260013388
:10521000994211D904EB431202F53060D2F8006BC9
:10522000002EEADB4FF0000CC2F800CBEAE74FF0AB
:10523000006CC2F800CBE5E72B6923F480732B6187
:105240000023A3616FF0804363610A9B1BB9A369CC
:1052500043F01003A361A2690B4B1343A3610D9BA1
:105260001BB1A36943F00803A361012F04D040469A
:10527000BDE8F04104B07047A36943F0804343F0B8
:105280000403A361F3E700BF00383C80D0F8003E80
:1052900023F00303C0F8003ED0F8043843F00203C3
:1052A000C0F8043800207047406900F001007047E2
:1052B00038B50546C36823F0C043C360012913D045
:1052C00019BBC36843F08043C36000240120FCF78E
:1052D000DFFE01342846FFF7E7FF08B1312CF5D98E
:1052E000322C14D0002038BDC36843F00053C36093
:1052F00000240120FCF7CCFE01342846FFF7D4FF40
:105300000128EDD0312CF4D9EAE70120EBE70120A8
:10531000E9E7000000B587B00023ADF814300C2396
:105320008DF814301F238DF815304FF47A730293E3
:10533000012301930DF11502009207226C210C4804
:10534000FEF734F818B1012007B05DF804FB4FF404
:105350007A7302930123019305AA009208226C211B
:105360000348FEF723F80028EED00120ECE700BF49
:105370007C0A002010B52DED028B86B00446002378
:10538000ADF814304FF0FF3302930223019305ABC5
:10539000009301230C226C212448FEF7B9F89DF8F4
:1053A00014209DF8153043EA022307EE903AB8EE38
:1053B000678A9FED1F0A28EE000ADFED1E0A20EE25
:1053C000200AF1EE0C7A20EE270A84ED000A06F09E
:1053D000EDF8D4ED037A30EE670A84ED000AB5EEFD
:1053E000C00AF1EE10FA1AD4D4ED007A9FED117ACA
:1053F000F4EEC77AF1EE10FA03DD77EEC77AC4ED6A
:10540000007ADFED0C0A28EE208A9FED090A28EECB
:10541000000A06F0CBF806B0BDEC028B10BDDFED44
:10542000057A30EE270A84ED000ADDE77C0A0020C9
:10543000000080390000B44370B586B005460E46C2
:105440000024019402940394049405940122FDF72E
:1054500062FC0196112302930394049401A9284647
:10546000FDF7EAFA06B070BD10B52948FDF784FFD4
:10547000284C4FF480712046FFF7DEFF4FF4007197
:105480002046FFF7D9FF4FF480712046FDF73CFC22
:10549000C8BB204C00224FF400712046FDF73BFCB6
:1054A0004FF400712046FDF72FFC00224FF480716D
:1054B0002046FDF730FC4FF480712046FDF724FCB8
:1054C00001224FF480712046FDF725FC4FF48071D6
:1054D0002046FDF719FC01224FF400712046FDF72C
:1054E0001AFC4FF400712046FDF70EFC4FF480715A
:1054F0002046FDF781FB4FF400712046FDF77CFB51
:10550000FBF7D4FF10BD00212046FDF7FDFBC0E7EF
:105510007C0A002000040240014B1868704700BF5D
:105520000C00002070B50D4E0D4D761BB61006D048
:10553000002455F8043B01349847A642F9D1094E9E
:10554000094D761B06F0E6F8B61006D0002455F893
:10555000043B01349847A642F9D170BD78BB0008DE
:1055600078BB000880BB000878BB0008830730B513
:1055700048D0541E002A3FD0CAB2034601E0013C85
:105580003AD303F8012B9D07F9D1032C2DD9CDB2C5
:1055900045EA05250F2C45EA054536D9A4F1100248
:1055A00022F00F0C03F1200EE6444FEA121C03F127
:1055B000100242E9045542E9025510327245F8D111
:1055C0000CF1010214F00C0F03EB021204F00F0CAB
:1055D00013D0ACF1040323F003030433134442F863
:1055E000045B9342FBD10CF003042CB1CAB21C44FF
:1055F00003F8012B9C42FBD130BD64461346002CBE
:10560000F4D1F9E703461446BFE71A46A446E0E79B
:1056100010B51A4C002924689AB02ADB0090049037
:105620004FF40270ADF80C0013D001394FF6FF7043
:1056300002910591ADF80E006946204600F050F841
:10564000421C01DA8B232360009B00221A701AB0DF
:1056500010BD4FF6FF7002910591ADF80E0069463E
:10566000204600F03DF8431C01DA8B2323601AB07A
:1056700010BD8B2323604FF0FF30F8E70C000020B3
:10568000024B13B1024800F005B87047000000005B
:10569000A1560008002301461A46184601F086BDAF
:1056A00038B5084B084D5B1B9C1007D0043B1D44CC
:1056B000013C55F804399847002CF9D1BDE8384031
:1056C00006F02EB884BB000880BB0008704700BFFE
:1056D000704700BF704700BF704700BF0000000068
:1056E0002DE9F04F2DED0A8BCFB00C4691460AEE16
:1056F000101A09930AEE900A02F026FF036813932A
:105700001846FBF75DFCA38912901A0603D523699E
:10571000002B00F0A0874D469FEDA57B2B78002441
:1057200025AACDE92344CDE91544CDE917448DEDF3
:10573000107B1AEE909A0E9422929046149405943F
:10574000002B00F0EC81AB4604E01BF8013F002B7E
:1057500000F01A81252BF8D1BBEB050640F018812B
:105760009BF80030002B00F0DA8100234FF0FF326D
:105770009BF801708DF86B3006930BF1010B0492CE
:105780009A462B2420210BF1010BA7F120035A2B61
:1057900000F23C81DFE813F0D5023A013A01D00271
:1057A0003A013A013A016A003A013A016502FE0201
:1057B0003A017002E4023A01DF025B005B005B0029
:1057C0005B005B005B005B005B005B003A013A0141
:1057D0003A013A013A013A013A01D2013A0136025C
:1057E0008500D201D201D2013A013A013A013A01CF
:1057F000CB023A013A01C6003A013A013A014002AD
:105800003A0175023A013A014F073A013A013A0169
:105810003A013A013A013A013A01D2013A0136021B
:105820008700D201D201D201BE02870080003A0176
:10583000B1023A019902C800870280003A01400291
:105840007D002A073A013A012E073A017D00A7F1AF
:10585000300300221BF8017B02EB820203EB4202C1
:10586000A7F13003092BF5D906928EE7484602F0DE
:105870006BFE436817931846FBF7A2FB1890064689
:10588000484602F061FE836815932021002E40F007
:10589000C2859BF8007076E79BF800704AF0200AFA
:1058A00071E74AF0100A1AF0200F099B00F09A8164
:1058B000073323F007031A465B6852F8084B099236
:1058C0001E46002BC0F26B85049B013301F03A8029
:1058D0002AF08003039354EA060300F0E7840A2CBD
:1058E00076F1000380F0908730340123DDF80CA0BE
:1058F0008DF8374107930DF23715049907989DF8F5
:105900006B3081424FF00002B8BF0146089203910C
:105910000C920F920D92002B00F08980039A0132B5
:10592000039284E04AF0100A1AF0200600F04B813E
:10593000099B073323F007035E6853F8084B09936C
:105940002AF480630393002300228DF86B20049ACD
:10595000551C00F02682039921F0800A54EA0601C2
:1059600040F01D82002A41F02980002B40F0A484E1
:10597000039B13F00103079300F0428530238DF859
:1059800037310DF23715B8E7BBEB050600F0C780DD
:10599000249B33442493239B0133072BC8E90056EF
:1059A000239309DC08F10808059B33440593D7E6E7
:1059B00000000000000000001AEE101A22AA48465B
:1059C00003F0B4FC90B90DF19408EDE71AEE101A4B
:1059D00022AA484603F0AAFC002800F09180089B08
:1059E00023B108991AEE900A02F0A8FC1AEE103AB8
:1059F0009B8913F0400F059B18BF4FF0FF330593B1
:105A000005984FB0BDEC0A8BBDE8F08F002F00F079
:105A1000868000238DF8D4708DF86B300122CDE99B
:105A20000723039204930C930F930D9335AD1AF053
:105A300002020A9202D0039A023203921AF08402FE
:105A40000B9205D1069A0399561A002E00F30D8386
:105A5000249C8BB1239B0DF16B0201330134C8F8F8
:105A60000020072B4FF0010224942393C8F8042050
:105A700000F3338308F108080A9B83B1239B1BAA18
:105A800001330234C8F80020072B4FF0020224949F
:105A90002393C8F8042000F32D8308F108080B9B1A
:105AA000802B00F00F82049B079A9E1A002E00F3B1
:105AB00050821AF4807F40F0AB81079BC8F8043015
:105AC0001C44239BC8F800500133072B24942393D4
:105AD00000F3BE8208F108081AF0040F05D0069BF7
:105AE000039A9D1A002D00F31283DDE90532039914
:105AF0008A42ACBF9B185B180593002C7FF466AFFD
